{
  "_format": "hh-sol-artifact-1",
  "contractName": "TVAF",
  "sourceName": "contracts/TVAF.sol",
  "abi": [
    {
      "inputs": [
        {
          "internalType": "string",
          "name": "_tokenURI",
          "type": "string"
        },
        {
          "internalType": "address",
          "name": "_dev",
          "type": "address"
        },
        {
          "internalType": "address",
          "name": "_art",
          "type": "address"
        }
      ],
      "stateMutability": "nonpayable",
      "type": "constructor"
    },
    {
      "inputs": [],
      "name": "ApprovalCallerNotOwnerNorApproved",
      "type": "error"
    },
    {
      "inputs": [],
      "name": "ApprovalQueryForNonexistentToken",
      "type": "error"
    },
    {
      "inputs": [],
      "name": "ApproveToCaller",
      "type": "error"
    },
    {
      "inputs": [],
      "name": "BalanceQueryForZeroAddress",
      "type": "error"
    },
    {
      "inputs": [],
      "name": "MintERC2309QuantityExceedsLimit",
      "type": "error"
    },
    {
      "inputs": [],
      "name": "MintToZeroAddress",
      "type": "error"
    },
    {
      "inputs": [],
      "name": "MintZeroQuantity",
      "type": "error"
    },
    {
      "inputs": [],
      "name": "OwnerQueryForNonexistentToken",
      "type": "error"
    },
    {
      "inputs": [],
      "name": "OwnershipNotInitializedForExtraData",
      "type": "error"
    },
    {
      "inputs": [],
      "name": "TransferCallerNotOwnerNorApproved",
      "type": "error"
    },
    {
      "inputs": [],
      "name": "TransferFromIncorrectOwner",
      "type": "error"
    },
    {
      "inputs": [],
      "name": "TransferToNonERC721ReceiverImplementer",
      "type": "error"
    },
    {
      "inputs": [],
      "name": "TransferToZeroAddress",
      "type": "error"
    },
    {
      "inputs": [],
      "name": "URIQueryForNonexistentToken",
      "type": "error"
    },
    {
      "anonymous": false,
      "inputs": [
        {
          "indexed": true,
          "internalType": "address",
          "name": "owner",
          "type": "address"
        },
        {
          "indexed": true,
          "internalType": "address",
          "name": "approved",
          "type": "address"
        },
        {
          "indexed": true,
          "internalType": "uint256",
          "name": "tokenId",
          "type": "uint256"
        }
      ],
      "name": "Approval",
      "type": "event"
    },
    {
      "anonymous": false,
      "inputs": [
        {
          "indexed": true,
          "internalType": "address",
          "name": "owner",
          "type": "address"
        },
        {
          "indexed": true,
          "internalType": "address",
          "name": "operator",
          "type": "address"
        },
        {
          "indexed": false,
          "internalType": "bool",
          "name": "approved",
          "type": "bool"
        }
      ],
      "name": "ApprovalForAll",
      "type": "event"
    },
    {
      "anonymous": false,
      "inputs": [
        {
          "indexed": true,
          "internalType": "uint256",
          "name": "fromTokenId",
          "type": "uint256"
        },
        {
          "indexed": false,
          "internalType": "uint256",
          "name": "toTokenId",
          "type": "uint256"
        },
        {
          "indexed": true,
          "internalType": "address",
          "name": "from",
          "type": "address"
        },
        {
          "indexed": true,
          "internalType": "address",
          "name": "to",
          "type": "address"
        }
      ],
      "name": "ConsecutiveTransfer",
      "type": "event"
    },
    {
      "anonymous": false,
      "inputs": [
        {
          "indexed": true,
          "internalType": "address",
          "name": "previousOwner",
          "type": "address"
        },
        {
          "indexed": true,
          "internalType": "address",
          "name": "newOwner",
          "type": "address"
        }
      ],
      "name": "OwnershipTransferred",
      "type": "event"
    },
    {
      "anonymous": false,
      "inputs": [
        {
          "indexed": false,
          "internalType": "address",
          "name": "account",
          "type": "address"
        }
      ],
      "name": "Paused",
      "type": "event"
    },
    {
      "anonymous": false,
      "inputs": [
        {
          "indexed": true,
          "internalType": "address",
          "name": "from",
          "type": "address"
        },
        {
          "indexed": true,
          "internalType": "address",
          "name": "to",
          "type": "address"
        },
        {
          "indexed": true,
          "internalType": "uint256",
          "name": "tokenId",
          "type": "uint256"
        }
      ],
      "name": "Transfer",
      "type": "event"
    },
    {
      "anonymous": false,
      "inputs": [
        {
          "indexed": false,
          "internalType": "address",
          "name": "account",
          "type": "address"
        }
      ],
      "name": "Unpaused",
      "type": "event"
    },
    {
      "inputs": [],
      "name": "_tokenIds",
      "outputs": [
        {
          "internalType": "uint256",
          "name": "_value",
          "type": "uint256"
        }
      ],
      "stateMutability": "view",
      "type": "function"
    },
    {
      "inputs": [
        {
          "internalType": "address",
          "name": "to",
          "type": "address"
        },
        {
          "internalType": "uint256",
          "name": "tokenId",
          "type": "uint256"
        }
      ],
      "name": "approve",
      "outputs": [],
      "stateMutability": "nonpayable",
      "type": "function"
    },
    {
      "inputs": [
        {
          "internalType": "address",
          "name": "owner",
          "type": "address"
        }
      ],
      "name": "balanceOf",
      "outputs": [
        {
          "internalType": "uint256",
          "name": "",
          "type": "uint256"
        }
      ],
      "stateMutability": "view",
      "type": "function"
    },
    {
      "inputs": [
        {
          "internalType": "uint256",
          "name": "tokenId",
          "type": "uint256"
        }
      ],
      "name": "getApproved",
      "outputs": [
        {
          "internalType": "address",
          "name": "",
          "type": "address"
        }
      ],
      "stateMutability": "view",
      "type": "function"
    },
    {
      "inputs": [
        {
          "internalType": "address",
          "name": "owner",
          "type": "address"
        },
        {
          "internalType": "address",
          "name": "operator",
          "type": "address"
        }
      ],
      "name": "isApprovedForAll",
      "outputs": [
        {
          "internalType": "bool",
          "name": "",
          "type": "bool"
        }
      ],
      "stateMutability": "view",
      "type": "function"
    },
    {
      "inputs": [],
      "name": "maxSupply",
      "outputs": [
        {
          "internalType": "uint256",
          "name": "",
          "type": "uint256"
        }
      ],
      "stateMutability": "view",
      "type": "function"
    },
    {
      "inputs": [
        {
          "internalType": "uint256",
          "name": "_quantity",
          "type": "uint256"
        }
      ],
      "name": "mint",
      "outputs": [],
      "stateMutability": "payable",
      "type": "function"
    },
    {
      "inputs": [],
      "name": "mintPrice",
      "outputs": [
        {
          "internalType": "uint256",
          "name": "",
          "type": "uint256"
        }
      ],
      "stateMutability": "view",
      "type": "function"
    },
    {
      "inputs": [],
      "name": "name",
      "outputs": [
        {
          "internalType": "string",
          "name": "",
          "type": "string"
        }
      ],
      "stateMutability": "view",
      "type": "function"
    },
    {
      "inputs": [],
      "name": "owner",
      "outputs": [
        {
          "internalType": "address",
          "name": "",
          "type": "address"
        }
      ],
      "stateMutability": "view",
      "type": "function"
    },
    {
      "inputs": [
        {
          "internalType": "uint256",
          "name": "tokenId",
          "type": "uint256"
        }
      ],
      "name": "ownerOf",
      "outputs": [
        {
          "internalType": "address",
          "name": "",
          "type": "address"
        }
      ],
      "stateMutability": "view",
      "type": "function"
    },
    {
      "inputs": [],
      "name": "pauseMinting",
      "outputs": [],
      "stateMutability": "nonpayable",
      "type": "function"
    },
    {
      "inputs": [],
      "name": "paused",
      "outputs": [
        {
          "internalType": "bool",
          "name": "",
          "type": "bool"
        }
      ],
      "stateMutability": "view",
      "type": "function"
    },
    {
      "inputs": [],
      "name": "renounceOwnership",
      "outputs": [],
      "stateMutability": "nonpayable",
      "type": "function"
    },
    {
      "inputs": [
        {
          "internalType": "address",
          "name": "from",
          "type": "address"
        },
        {
          "internalType": "address",
          "name": "to",
          "type": "address"
        },
        {
          "internalType": "uint256",
          "name": "tokenId",
          "type": "uint256"
        }
      ],
      "name": "safeTransferFrom",
      "outputs": [],
      "stateMutability": "nonpayable",
      "type": "function"
    },
    {
      "inputs": [
        {
          "internalType": "address",
          "name": "from",
          "type": "address"
        },
        {
          "internalType": "address",
          "name": "to",
          "type": "address"
        },
        {
          "internalType": "uint256",
          "name": "tokenId",
          "type": "uint256"
        },
        {
          "internalType": "bytes",
          "name": "_data",
          "type": "bytes"
        }
      ],
      "name": "safeTransferFrom",
      "outputs": [],
      "stateMutability": "nonpayable",
      "type": "function"
    },
    {
      "inputs": [
        {
          "internalType": "address",
          "name": "operator",
          "type": "address"
        },
        {
          "internalType": "bool",
          "name": "approved",
          "type": "bool"
        }
      ],
      "name": "setApprovalForAll",
      "outputs": [],
      "stateMutability": "nonpayable",
      "type": "function"
    },
    {
      "inputs": [
        {
          "internalType": "string",
          "name": "baseURI",
          "type": "string"
        }
      ],
      "name": "setBaseURI",
      "outputs": [],
      "stateMutability": "nonpayable",
      "type": "function"
    },
    {
      "inputs": [
        {
          "internalType": "bytes4",
          "name": "interfaceId",
          "type": "bytes4"
        }
      ],
      "name": "supportsInterface",
      "outputs": [
        {
          "internalType": "bool",
          "name": "",
          "type": "bool"
        }
      ],
      "stateMutability": "view",
      "type": "function"
    },
    {
      "inputs": [],
      "name": "symbol",
      "outputs": [
        {
          "internalType": "string",
          "name": "",
          "type": "string"
        }
      ],
      "stateMutability": "view",
      "type": "function"
    },
    {
      "inputs": [
        {
          "internalType": "uint256",
          "name": "tokenId",
          "type": "uint256"
        }
      ],
      "name": "tokenURI",
      "outputs": [
        {
          "internalType": "string",
          "name": "",
          "type": "string"
        }
      ],
      "stateMutability": "view",
      "type": "function"
    },
    {
      "inputs": [],
      "name": "totalSupply",
      "outputs": [
        {
          "internalType": "uint256",
          "name": "",
          "type": "uint256"
        }
      ],
      "stateMutability": "view",
      "type": "function"
    },
    {
      "inputs": [
        {
          "internalType": "address",
          "name": "from",
          "type": "address"
        },
        {
          "internalType": "address",
          "name": "to",
          "type": "address"
        },
        {
          "internalType": "uint256",
          "name": "tokenId",
          "type": "uint256"
        }
      ],
      "name": "transferFrom",
      "outputs": [],
      "stateMutability": "nonpayable",
      "type": "function"
    },
    {
      "inputs": [
        {
          "internalType": "address",
          "name": "newOwner",
          "type": "address"
        }
      ],
      "name": "transferOwnership",
      "outputs": [],
      "stateMutability": "nonpayable",
      "type": "function"
    },
    {
      "inputs": [],
      "name": "unpauseMinting",
      "outputs": [],
      "stateMutability": "nonpayable",
      "type": "function"
    },
    {
      "inputs": [
        {
          "internalType": "uint256",
          "name": "_newPrice",
          "type": "uint256"
        }
      ],
      "name": "updatePrice",
      "outputs": [],
      "stateMutability": "nonpayable",
      "type": "function"
    },
    {
      "inputs": [],
      "name": "withdraw",
      "outputs": [],
      "stateMutability": "nonpayable",
      "type": "function"
    }
  ],
  "bytecode": "0x60a060405260646080908152503480156200001957600080fd5b50604051620033773803806200337783398181016040528101906200003f9190620007f0565b6040518060400160405280601481526020017f5468652056696e6e696520416e64204672656e730000000000000000000000008152506040518060400160405280600481526020017f54564146000000000000000000000000000000000000000000000000000000008152508160029080519060200190620000c39291906200053e565b508060039080519060200190620000dc9291906200053e565b50620000ed6200020460201b60201c565b600081905550505062000115620001096200020960201b60201c565b6200021160201b60201c565b6000600860146101000a81548160ff02191690831515021790555082600d9080519060200190620001489291906200053e565b506200016b6200015d6200020960201b60201c565b6064620002d760201b60201c565b662386f26fc10000600a8190555081600c60006101000a81548173ffffffffffffffffffffffffffffffffffffffff021916908373ffffffffffffffffffffffffffffffffffffffff16021790555080600b60006101000a81548173ffffffffffffffffffffffffffffffffffffffff021916908373ffffffffffffffffffffffffffffffffffffffff160217905550505050620008cf565b600090565b600033905090565b6000600860009054906101000a900473ffffffffffffffffffffffffffffffffffffffff16905081600860006101000a81548173ffffffffffffffffffffffffffffffffffffffff021916908373ffffffffffffffffffffffffffffffffffffffff1602179055508173ffffffffffffffffffffffffffffffffffffffff168173ffffffffffffffffffffffffffffffffffffffff167f8be0079c531659141344cd1fd0a4f28419497f9722a3daafe3b4186f6b6457e060405160405180910390a35050565b6000805490506000820362000318576040517fb562e8dd00000000000000000000000000000000000000000000000000000000815260040160405180910390fd5b6200032d6000848385620004be60201b60201c565b600160406001901b178202600560008573ffffffffffffffffffffffffffffffffffffffff1673ffffffffffffffffffffffffffffffffffffffff16815260200190815260200160002060008282540192505081905550620003bc836200039e6000866000620004c460201b60201c565b620003af85620004f460201b60201c565b176200050460201b60201c565b6004600083815260200190815260200160002081905550600080838301905073ffffffffffffffffffffffffffffffffffffffff85169150828260007fddf252ad1be2c89b69c2b068fc378daa952ba7f163c4a11628f55a4df523b3ef600080a4600183015b8181146200045f57808360007fddf252ad1be2c89b69c2b068fc378daa952ba7f163c4a11628f55a4df523b3ef600080a460018101905062000422565b50600082036200049b576040517f2e07630000000000000000000000000000000000000000000000000000000000815260040160405180910390fd5b806000819055505050620004b960008483856200052f60201b60201c565b505050565b50505050565b60008060e883901c905060e8620004e38686846200053560201b60201c565b62ffffff16901b9150509392505050565b60006001821460e11b9050919050565b600073ffffffffffffffffffffffffffffffffffffffff83169250814260a01b178317905092915050565b50505050565b60009392505050565b8280546200054c906200089a565b90600052602060002090601f016020900481019282620005705760008555620005bc565b82601f106200058b57805160ff1916838001178555620005bc565b82800160010185558215620005bc579182015b82811115620005bb5782518255916020019190600101906200059e565b5b509050620005cb9190620005cf565b5090565b5b80821115620005ea576000816000905550600101620005d0565b5090565b6000604051905090565b600080fd5b600080fd5b600080fd5b600080fd5b6000601f19601f8301169050919050565b7f4e487b7100000000000000000000000000000000000000000000000000000000600052604160045260246000fd5b62000657826200060c565b810181811067ffffffffffffffff821117156200067957620006786200061d565b5b80604052505050565b60006200068e620005ee565b90506200069c82826200064c565b919050565b600067ffffffffffffffff821115620006bf57620006be6200061d565b5b620006ca826200060c565b9050602081019050919050565b60005b83811015620006f7578082015181840152602081019050620006da565b8381111562000707576000848401525b50505050565b6000620007246200071e84620006a1565b62000682565b90508281526020810184848401111562000743576200074262000607565b5b62000750848285620006d7565b509392505050565b600082601f83011262000770576200076f62000602565b5b8151620007828482602086016200070d565b91505092915050565b600073ffffffffffffffffffffffffffffffffffffffff82169050919050565b6000620007b8826200078b565b9050919050565b620007ca81620007ab565b8114620007d657600080fd5b50565b600081519050620007ea81620007bf565b92915050565b6000806000606084860312156200080c576200080b620005f8565b5b600084015167ffffffffffffffff8111156200082d576200082c620005fd565b5b6200083b8682870162000758565b93505060206200084e86828701620007d9565b92505060406200086186828701620007d9565b9150509250925092565b7f4e487b7100000000000000000000000000000000000000000000000000000000600052602260045260246000fd5b60006002820490506001821680620008b357607f821691505b602082108103620008c957620008c86200086b565b5b50919050565b608051612a8c620008eb60003960006112220152612a8c6000f3fe60806040526004361061019c5760003560e01c8063715018a6116100ec578063ae2003221161008a578063d5abeb0111610064578063d5abeb011461057f578063da8fbf2a146105aa578063e985e9c5146105c1578063f2fde38b146105fe5761019c565b8063ae20032214610502578063b88d4fde14610519578063c87b56dd146105425761019c565b806395d89b41116100c657806395d89b4114610467578063a0712d6814610492578063a22cb465146104ae578063aa46a400146104d75761019c565b8063715018a6146103fc5780638d6cc56d146104135780638da5cb5b1461043c5761019c565b80633ccfd60b116101595780635c975abb116101335780635c975abb1461032c5780636352211e146103575780636817c76c1461039457806370a08231146103bf5761019c565b80633ccfd60b146102c357806342842e0e146102da57806355f804b3146103035761019c565b806301ffc9a7146101a157806306fdde03146101de578063081812fc14610209578063095ea7b31461024657806318160ddd1461026f57806323b872dd1461029a575b600080fd5b3480156101ad57600080fd5b506101c860048036038101906101c39190611dbe565b610627565b6040516101d59190611e06565b60405180910390f35b3480156101ea57600080fd5b506101f36106b9565b6040516102009190611eba565b60405180910390f35b34801561021557600080fd5b50610230600480360381019061022b9190611f12565b61074b565b60405161023d9190611f80565b60405180910390f35b34801561025257600080fd5b5061026d60048036038101906102689190611fc7565b6107ca565b005b34801561027b57600080fd5b5061028461090e565b6040516102919190612016565b60405180910390f35b3480156102a657600080fd5b506102c160048036038101906102bc9190612031565b610925565b005b3480156102cf57600080fd5b506102d8610c47565b005b3480156102e657600080fd5b5061030160048036038101906102fc9190612031565b610d7b565b005b34801561030f57600080fd5b5061032a600480360381019061032591906121b9565b610d9b565b005b34801561033857600080fd5b50610341610dbd565b60405161034e9190611e06565b60405180910390f35b34801561036357600080fd5b5061037e60048036038101906103799190611f12565b610dd4565b60405161038b9190611f80565b60405180910390f35b3480156103a057600080fd5b506103a9610de6565b6040516103b69190612016565b60405180910390f35b3480156103cb57600080fd5b506103e660048036038101906103e19190612202565b610dec565b6040516103f39190612016565b60405180910390f35b34801561040857600080fd5b50610411610ea4565b005b34801561041f57600080fd5b5061043a60048036038101906104359190611f12565b610eb8565b005b34801561044857600080fd5b50610451610eca565b60405161045e9190611f80565b60405180910390f35b34801561047357600080fd5b5061047c610ef4565b6040516104899190611eba565b60405180910390f35b6104ac60048036038101906104a79190611f12565b610f86565b005b3480156104ba57600080fd5b506104d560048036038101906104d0919061225b565b610fde565b005b3480156104e357600080fd5b506104ec611155565b6040516104f99190612016565b60405180910390f35b34801561050e57600080fd5b50610517611161565b005b34801561052557600080fd5b50610540600480360381019061053b919061233c565b611173565b005b34801561054e57600080fd5b5061056960048036038101906105649190611f12565b6111e6565b6040516105769190611eba565b60405180910390f35b34801561058b57600080fd5b50610594611220565b6040516105a19190612016565b60405180910390f35b3480156105b657600080fd5b506105bf611244565b005b3480156105cd57600080fd5b506105e860048036038101906105e391906123bf565b611256565b6040516105f59190611e06565b60405180910390f35b34801561060a57600080fd5b5061062560048036038101906106209190612202565b6112ea565b005b60006301ffc9a760e01b827bffffffffffffffffffffffffffffffffffffffffffffffffffffffff1916148061068257506380ac58cd60e01b827bffffffffffffffffffffffffffffffffffffffffffffffffffffffff1916145b806106b25750635b5e139f60e01b827bffffffffffffffffffffffffffffffffffffffffffffffffffffffff1916145b9050919050565b6060600280546106c89061242e565b80601f01602080910402602001604051908101604052809291908181526020018280546106f49061242e565b80156107415780601f1061071657610100808354040283529160200191610741565b820191906000526020600020905b81548152906001019060200180831161072457829003601f168201915b5050505050905090565b60006107568261136d565b61078c576040517fcf4700e400000000000000000000000000000000000000000000000000000000815260040160405180910390fd5b6006600083815260200190815260200160002060000160009054906101000a900473ffffffffffffffffffffffffffffffffffffffff169050919050565b60006107d582610dd4565b90508073ffffffffffffffffffffffffffffffffffffffff166107f66113cc565b73ffffffffffffffffffffffffffffffffffffffff1614610859576108228161081d6113cc565b611256565b610858576040517fcfb3b94200000000000000000000000000000000000000000000000000000000815260040160405180910390fd5b5b826006600084815260200190815260200160002060000160006101000a81548173ffffffffffffffffffffffffffffffffffffffff021916908373ffffffffffffffffffffffffffffffffffffffff160217905550818373ffffffffffffffffffffffffffffffffffffffff168273ffffffffffffffffffffffffffffffffffffffff167f8c5be1e5ebec7d5bd14f71427d1e84f3dd0314c0f7b2291e5b200ac8c7c3b92560405160405180910390a4505050565b60006109186113d4565b6001546000540303905090565b6000610930826113d9565b90508373ffffffffffffffffffffffffffffffffffffffff168173ffffffffffffffffffffffffffffffffffffffff1614610997576040517fa114810000000000000000000000000000000000000000000000000000000000815260040160405180910390fd5b6000806109a3846114a5565b915091506109b981876109b46113cc565b6114cc565b610a05576109ce866109c96113cc565b611256565b610a04576040517f59c896be00000000000000000000000000000000000000000000000000000000815260040160405180910390fd5b5b600073ffffffffffffffffffffffffffffffffffffffff168573ffffffffffffffffffffffffffffffffffffffff1603610a6b576040517fea553b3400000000000000000000000000000000000000000000000000000000815260040160405180910390fd5b610a788686866001611510565b8015610a8357600082555b600560008773ffffffffffffffffffffffffffffffffffffffff1673ffffffffffffffffffffffffffffffffffffffff168152602001908152602001600020600081546001900391905081905550600560008673ffffffffffffffffffffffffffffffffffffffff1673ffffffffffffffffffffffffffffffffffffffff1681526020019081526020016000206000815460010191905081905550610b5185610b2d888887611516565b7c02000000000000000000000000000000000000000000000000000000001761153e565b600460008681526020019081526020016000208190555060007c0200000000000000000000000000000000000000000000000000000000841603610bd75760006001850190506000600460008381526020019081526020016000205403610bd5576000548114610bd4578360046000838152602001908152602001600020819055505b5b505b838573ffffffffffffffffffffffffffffffffffffffff168773ffffffffffffffffffffffffffffffffffffffff167fddf252ad1be2c89b69c2b068fc378daa952ba7f163c4a11628f55a4df523b3ef60405160405180910390a4610c3f8686866001611569565b505050505050565b610c4f61156f565b6000670de0b6b3a764000067058d15e17628000047610c6e919061248e565b610c789190612517565b90506000670de0b6b3a7640000670853a0d2313c000047610c99919061248e565b610ca39190612517565b9050600b60009054906101000a900473ffffffffffffffffffffffffffffffffffffffff1673ffffffffffffffffffffffffffffffffffffffff166108fc839081150290604051600060405180830381858888f19350505050158015610d0d573d6000803e3d6000fd5b50600c60009054906101000a900473ffffffffffffffffffffffffffffffffffffffff1673ffffffffffffffffffffffffffffffffffffffff166108fc829081150290604051600060405180830381858888f19350505050158015610d76573d6000803e3d6000fd5b505050565b610d9683838360405180602001604052806000815250611173565b505050565b610da361156f565b80600d9080519060200190610db9929190611caf565b5050565b6000600860149054906101000a900460ff16905090565b6000610ddf826113d9565b9050919050565b600a5481565b60008073ffffffffffffffffffffffffffffffffffffffff168273ffffffffffffffffffffffffffffffffffffffff1603610e53576040517f8f4eb60400000000000000000000000000000000000000000000000000000000815260040160405180910390fd5b67ffffffffffffffff600560008473ffffffffffffffffffffffffffffffffffffffff1673ffffffffffffffffffffffffffffffffffffffff16815260200190815260200160002054169050919050565b610eac61156f565b610eb660006115ed565b565b610ec061156f565b80600a8190555050565b6000600860009054906101000a900473ffffffffffffffffffffffffffffffffffffffff16905090565b606060038054610f039061242e565b80601f0160208091040260200160405190810160405280929190818152602001828054610f2f9061242e565b8015610f7c5780601f10610f5157610100808354040283529160200191610f7c565b820191906000526020600020905b815481529060010190602001808311610f5f57829003601f168201915b5050505050905090565b600a543414610fca576040517f08c379a0000000000000000000000000000000000000000000000000000000008152600401610fc190612594565b60405180910390fd5b610fdb610fd56116b3565b826116bb565b50565b610fe66113cc565b73ffffffffffffffffffffffffffffffffffffffff168273ffffffffffffffffffffffffffffffffffffffff160361104a576040517fb06307db00000000000000000000000000000000000000000000000000000000815260040160405180910390fd5b80600760006110576113cc565b73ffffffffffffffffffffffffffffffffffffffff1673ffffffffffffffffffffffffffffffffffffffff16815260200190815260200160002060008473ffffffffffffffffffffffffffffffffffffffff1673ffffffffffffffffffffffffffffffffffffffff16815260200190815260200160002060006101000a81548160ff0219169083151502179055508173ffffffffffffffffffffffffffffffffffffffff166111046113cc565b73ffffffffffffffffffffffffffffffffffffffff167f17307eab39ab6107e8899845ad3d59bd9653f200f220920489ca2b5937696c31836040516111499190611e06565b60405180910390a35050565b60098060000154905081565b61116961156f565b611171611876565b565b61117e848484610925565b60008373ffffffffffffffffffffffffffffffffffffffff163b146111e0576111a9848484846118d9565b6111df576040517fd1a57ed600000000000000000000000000000000000000000000000000000000815260040160405180910390fd5b5b50505050565b60606111f0611a29565b6111f983611a40565b60405160200161120a92919061263c565b6040516020818303038152906040529050919050565b7f000000000000000000000000000000000000000000000000000000000000000081565b61124c61156f565b611254611ba0565b565b6000600760008473ffffffffffffffffffffffffffffffffffffffff1673ffffffffffffffffffffffffffffffffffffffff16815260200190815260200160002060008373ffffffffffffffffffffffffffffffffffffffff1673ffffffffffffffffffffffffffffffffffffffff16815260200190815260200160002060009054906101000a900460ff16905092915050565b6112f261156f565b600073ffffffffffffffffffffffffffffffffffffffff168173ffffffffffffffffffffffffffffffffffffffff1603611361576040517f08c379a0000000000000000000000000000000000000000000000000000000008152600401611358906126dd565b60405180910390fd5b61136a816115ed565b50565b6000816113786113d4565b11158015611387575060005482105b80156113c5575060007c0100000000000000000000000000000000000000000000000000000000600460008581526020019081526020016000205416145b9050919050565b600033905090565b600090565b600080829050806113e86113d4565b1161146e5760005481101561146d5760006004600083815260200190815260200160002054905060007c010000000000000000000000000000000000000000000000000000000082160361146b575b60008103611461576004600083600190039350838152602001908152602001600020549050611437565b80925050506114a0565b505b5b6040517fdf2d9b4200000000000000000000000000000000000000000000000000000000815260040160405180910390fd5b919050565b60008060006006600085815260200190815260200160002090508092508254915050915091565b600073ffffffffffffffffffffffffffffffffffffffff8316925073ffffffffffffffffffffffffffffffffffffffff821691508382148383141790509392505050565b50505050565b60008060e883901c905060e861152d868684611c03565b62ffffff16901b9150509392505050565b600073ffffffffffffffffffffffffffffffffffffffff83169250814260a01b178317905092915050565b50505050565b6115776116b3565b73ffffffffffffffffffffffffffffffffffffffff16611595610eca565b73ffffffffffffffffffffffffffffffffffffffff16146115eb576040517f08c379a00000000000000000000000000000000000000000000000000000000081526004016115e290612749565b60405180910390fd5b565b6000600860009054906101000a900473ffffffffffffffffffffffffffffffffffffffff16905081600860006101000a81548173ffffffffffffffffffffffffffffffffffffffff021916908373ffffffffffffffffffffffffffffffffffffffff1602179055508173ffffffffffffffffffffffffffffffffffffffff168173ffffffffffffffffffffffffffffffffffffffff167f8be0079c531659141344cd1fd0a4f28419497f9722a3daafe3b4186f6b6457e060405160405180910390a35050565b600033905090565b600080549050600082036116fb576040517fb562e8dd00000000000000000000000000000000000000000000000000000000815260040160405180910390fd5b6117086000848385611510565b600160406001901b178202600560008573ffffffffffffffffffffffffffffffffffffffff1673ffffffffffffffffffffffffffffffffffffffff1681526020019081526020016000206000828254019250508190555061177f836117706000866000611516565b61177985611c0c565b1761153e565b6004600083815260200190815260200160002081905550600080838301905073ffffffffffffffffffffffffffffffffffffffff85169150828260007fddf252ad1be2c89b69c2b068fc378daa952ba7f163c4a11628f55a4df523b3ef600080a4600183015b81811461182057808360007fddf252ad1be2c89b69c2b068fc378daa952ba7f163c4a11628f55a4df523b3ef600080a46001810190506117e5565b506000820361185b576040517f2e07630000000000000000000000000000000000000000000000000000000000815260040160405180910390fd5b8060008190555050506118716000848385611569565b505050565b61187e611c1c565b6000600860146101000a81548160ff0219169083151502179055507f5db9ee0a495bf2e6ff9c91a7834c1ba4fdd244a5e8aa4e537bd38aeae4b073aa6118c26116b3565b6040516118cf9190611f80565b60405180910390a1565b60008373ffffffffffffffffffffffffffffffffffffffff1663150b7a026118ff6113cc565b8786866040518563ffffffff1660e01b815260040161192194939291906127be565b6020604051808303816000875af192505050801561195d57506040513d601f19601f8201168201806040525081019061195a919061281f565b60015b6119d6573d806000811461198d576040519150601f19603f3d011682016040523d82523d6000602084013e611992565b606091505b5060008151036119ce576040517fd1a57ed600000000000000000000000000000000000000000000000000000000815260040160405180910390fd5b805181602001fd5b63150b7a0260e01b7bffffffffffffffffffffffffffffffffffffffffffffffffffffffff1916817bffffffffffffffffffffffffffffffffffffffffffffffffffffffff191614915050949350505050565b606060405180602001604052806000815250905090565b606060008203611a87576040518060400160405280600181526020017f30000000000000000000000000000000000000000000000000000000000000008152509050611b9b565b600082905060005b60008214611ab9578080611aa29061284c565b915050600a82611ab29190612517565b9150611a8f565b60008167ffffffffffffffff811115611ad557611ad461208e565b5b6040519080825280601f01601f191660200182016040528015611b075781602001600182028036833780820191505090505b5090505b60008514611b9457600182611b209190612894565b9150600a85611b2f91906128c8565b6030611b3b91906128f9565b60f81b818381518110611b5157611b5061294f565b5b60200101907effffffffffffffffffffffffffffffffffffffffffffffffffffffffffffff1916908160001a905350600a85611b8d9190612517565b9450611b0b565b8093505050505b919050565b611ba8611c65565b6001600860146101000a81548160ff0219169083151502179055507f62e78cea01bee320cd4e420270b5ea74000d11b0c9f74754ebdbfc544b05a258611bec6116b3565b604051611bf99190611f80565b60405180910390a1565b60009392505050565b60006001821460e11b9050919050565b611c24610dbd565b611c63576040517f08c379a0000000000000000000000000000000000000000000000000000000008152600401611c5a906129ca565b60405180910390fd5b565b611c6d610dbd565b15611cad576040517f08c379a0000000000000000000000000000000000000000000000000000000008152600401611ca490612a36565b60405180910390fd5b565b828054611cbb9061242e565b90600052602060002090601f016020900481019282611cdd5760008555611d24565b82601f10611cf657805160ff1916838001178555611d24565b82800160010185558215611d24579182015b82811115611d23578251825591602001919060010190611d08565b5b509050611d319190611d35565b5090565b5b80821115611d4e576000816000905550600101611d36565b5090565b6000604051905090565b600080fd5b600080fd5b60007fffffffff0000000000000000000000000000000000000000000000000000000082169050919050565b611d9b81611d66565b8114611da657600080fd5b50565b600081359050611db881611d92565b92915050565b600060208284031215611dd457611dd3611d5c565b5b6000611de284828501611da9565b91505092915050565b60008115159050919050565b611e0081611deb565b82525050565b6000602082019050611e1b6000830184611df7565b92915050565b600081519050919050565b600082825260208201905092915050565b60005b83811015611e5b578082015181840152602081019050611e40565b83811115611e6a576000848401525b50505050565b6000601f19601f8301169050919050565b6000611e8c82611e21565b611e968185611e2c565b9350611ea6818560208601611e3d565b611eaf81611e70565b840191505092915050565b60006020820190508181036000830152611ed48184611e81565b905092915050565b6000819050919050565b611eef81611edc565b8114611efa57600080fd5b50565b600081359050611f0c81611ee6565b92915050565b600060208284031215611f2857611f27611d5c565b5b6000611f3684828501611efd565b91505092915050565b600073ffffffffffffffffffffffffffffffffffffffff82169050919050565b6000611f6a82611f3f565b9050919050565b611f7a81611f5f565b82525050565b6000602082019050611f956000830184611f71565b92915050565b611fa481611f5f565b8114611faf57600080fd5b50565b600081359050611fc181611f9b565b92915050565b60008060408385031215611fde57611fdd611d5c565b5b6000611fec85828601611fb2565b9250506020611ffd85828601611efd565b9150509250929050565b61201081611edc565b82525050565b600060208201905061202b6000830184612007565b92915050565b60008060006060848603121561204a57612049611d5c565b5b600061205886828701611fb2565b935050602061206986828701611fb2565b925050604061207a86828701611efd565b9150509250925092565b600080fd5b600080fd5b7f4e487b7100000000000000000000000000000000000000000000000000000000600052604160045260246000fd5b6120c682611e70565b810181811067ffffffffffffffff821117156120e5576120e461208e565b5b80604052505050565b60006120f8611d52565b905061210482826120bd565b919050565b600067ffffffffffffffff8211156121245761212361208e565b5b61212d82611e70565b9050602081019050919050565b82818337600083830152505050565b600061215c61215784612109565b6120ee565b90508281526020810184848401111561217857612177612089565b5b61218384828561213a565b509392505050565b600082601f8301126121a05761219f612084565b5b81356121b0848260208601612149565b91505092915050565b6000602082840312156121cf576121ce611d5c565b5b600082013567ffffffffffffffff8111156121ed576121ec611d61565b5b6121f98482850161218b565b91505092915050565b60006020828403121561221857612217611d5c565b5b600061222684828501611fb2565b91505092915050565b61223881611deb565b811461224357600080fd5b50565b6000813590506122558161222f565b92915050565b6000806040838503121561227257612271611d5c565b5b600061228085828601611fb2565b925050602061229185828601612246565b9150509250929050565b600067ffffffffffffffff8211156122b6576122b561208e565b5b6122bf82611e70565b9050602081019050919050565b60006122df6122da8461229b565b6120ee565b9050828152602081018484840111156122fb576122fa612089565b5b61230684828561213a565b509392505050565b600082601f83011261232357612322612084565b5b81356123338482602086016122cc565b91505092915050565b6000806000806080858703121561235657612355611d5c565b5b600061236487828801611fb2565b945050602061237587828801611fb2565b935050604061238687828801611efd565b925050606085013567ffffffffffffffff8111156123a7576123a6611d61565b5b6123b38782880161230e565b91505092959194509250565b600080604083850312156123d6576123d5611d5c565b5b60006123e485828601611fb2565b92505060206123f585828601611fb2565b9150509250929050565b7f4e487b7100000000000000000000000000000000000000000000000000000000600052602260045260246000fd5b6000600282049050600182168061244657607f821691505b602082108103612459576124586123ff565b5b50919050565b7f4e487b7100000000000000000000000000000000000000000000000000000000600052601160045260246000fd5b600061249982611edc565b91506124a483611edc565b9250817fffffffffffffffffffffffffffffffffffffffffffffffffffffffffffffffff04831182151516156124dd576124dc61245f565b5b828202905092915050565b7f4e487b7100000000000000000000000000000000000000000000000000000000600052601260045260246000fd5b600061252282611edc565b915061252d83611edc565b92508261253d5761253c6124e8565b5b828204905092915050565b7f496e76616c69642042616c616e63650000000000000000000000000000000000600082015250565b600061257e600f83611e2c565b915061258982612548565b602082019050919050565b600060208201905081810360008301526125ad81612571565b9050919050565b600081905092915050565b60006125ca82611e21565b6125d481856125b4565b93506125e4818560208601611e3d565b80840191505092915050565b7f2e6a736f6e000000000000000000000000000000000000000000000000000000600082015250565b60006126266005836125b4565b9150612631826125f0565b600582019050919050565b600061264882856125bf565b915061265482846125bf565b915061265f82612619565b91508190509392505050565b7f4f776e61626c653a206e6577206f776e657220697320746865207a65726f206160008201527f6464726573730000000000000000000000000000000000000000000000000000602082015250565b60006126c7602683611e2c565b91506126d28261266b565b604082019050919050565b600060208201905081810360008301526126f6816126ba565b9050919050565b7f4f776e61626c653a2063616c6c6572206973206e6f7420746865206f776e6572600082015250565b6000612733602083611e2c565b915061273e826126fd565b602082019050919050565b6000602082019050818103600083015261276281612726565b9050919050565b600081519050919050565b600082825260208201905092915050565b600061279082612769565b61279a8185612774565b93506127aa818560208601611e3d565b6127b381611e70565b840191505092915050565b60006080820190506127d36000830187611f71565b6127e06020830186611f71565b6127ed6040830185612007565b81810360608301526127ff8184612785565b905095945050505050565b60008151905061281981611d92565b92915050565b60006020828403121561283557612834611d5c565b5b60006128438482850161280a565b91505092915050565b600061285782611edc565b91507fffffffffffffffffffffffffffffffffffffffffffffffffffffffffffffffff82036128895761288861245f565b5b600182019050919050565b600061289f82611edc565b91506128aa83611edc565b9250828210156128bd576128bc61245f565b5b828203905092915050565b60006128d382611edc565b91506128de83611edc565b9250826128ee576128ed6124e8565b5b828206905092915050565b600061290482611edc565b915061290f83611edc565b9250827fffffffffffffffffffffffffffffffffffffffffffffffffffffffffffffffff038211156129445761294361245f565b5b828201905092915050565b7f4e487b7100000000000000000000000000000000000000000000000000000000600052603260045260246000fd5b7f5061757361626c653a206e6f7420706175736564000000000000000000000000600082015250565b60006129b4601483611e2c565b91506129bf8261297e565b602082019050919050565b600060208201905081810360008301526129e3816129a7565b9050919050565b7f5061757361626c653a2070617573656400000000000000000000000000000000600082015250565b6000612a20601083611e2c565b9150612a2b826129ea565b602082019050919050565b60006020820190508181036000830152612a4f81612a13565b905091905056fea2646970667358221220f936d9ae0a00d51ed9ae53c4be2dc90de89a9256a96ee5793753c710f4750fcc64736f6c634300080d0033",
  "linkReferences": {},
  "deployedLinkReferences": {}
}