{
  "_format": "hh-sol-artifact-1",
  "contractName": "VinnyandFrens",
  "sourceName": "contracts/TVAF.sol",
  "abi": [
    {
      "inputs": [
        {
          "internalType": "string",
          "name": "_tokenURI",
          "type": "string"
        },
        {
          "internalType": "address",
          "name": "_dev",
          "type": "address"
        },
        {
          "internalType": "address",
          "name": "_art",
          "type": "address"
        }
      ],
      "stateMutability": "nonpayable",
      "type": "constructor"
    },
    {
      "inputs": [],
      "name": "ApprovalCallerNotOwnerNorApproved",
      "type": "error"
    },
    {
      "inputs": [],
      "name": "ApprovalQueryForNonexistentToken",
      "type": "error"
    },
    {
      "inputs": [],
      "name": "ApproveToCaller",
      "type": "error"
    },
    {
      "inputs": [],
      "name": "BalanceQueryForZeroAddress",
      "type": "error"
    },
    {
      "inputs": [],
      "name": "EmptyBalance",
      "type": "error"
    },
    {
      "inputs": [],
      "name": "IncorrectAmount",
      "type": "error"
    },
    {
      "inputs": [],
      "name": "InvalidQuantity",
      "type": "error"
    },
    {
      "inputs": [],
      "name": "MintERC2309QuantityExceedsLimit",
      "type": "error"
    },
    {
      "inputs": [],
      "name": "MintToZeroAddress",
      "type": "error"
    },
    {
      "inputs": [],
      "name": "MintZeroQuantity",
      "type": "error"
    },
    {
      "inputs": [],
      "name": "MintedOut",
      "type": "error"
    },
    {
      "inputs": [],
      "name": "OwnerQueryForNonexistentToken",
      "type": "error"
    },
    {
      "inputs": [],
      "name": "OwnershipNotInitializedForExtraData",
      "type": "error"
    },
    {
      "inputs": [],
      "name": "TransferCallerNotOwnerNorApproved",
      "type": "error"
    },
    {
      "inputs": [],
      "name": "TransferFromIncorrectOwner",
      "type": "error"
    },
    {
      "inputs": [],
      "name": "TransferToNonERC721ReceiverImplementer",
      "type": "error"
    },
    {
      "inputs": [],
      "name": "TransferToZeroAddress",
      "type": "error"
    },
    {
      "inputs": [],
      "name": "URIQueryForNonexistentToken",
      "type": "error"
    },
    {
      "anonymous": false,
      "inputs": [
        {
          "indexed": true,
          "internalType": "address",
          "name": "owner",
          "type": "address"
        },
        {
          "indexed": true,
          "internalType": "address",
          "name": "approved",
          "type": "address"
        },
        {
          "indexed": true,
          "internalType": "uint256",
          "name": "tokenId",
          "type": "uint256"
        }
      ],
      "name": "Approval",
      "type": "event"
    },
    {
      "anonymous": false,
      "inputs": [
        {
          "indexed": true,
          "internalType": "address",
          "name": "owner",
          "type": "address"
        },
        {
          "indexed": true,
          "internalType": "address",
          "name": "operator",
          "type": "address"
        },
        {
          "indexed": false,
          "internalType": "bool",
          "name": "approved",
          "type": "bool"
        }
      ],
      "name": "ApprovalForAll",
      "type": "event"
    },
    {
      "anonymous": false,
      "inputs": [
        {
          "indexed": true,
          "internalType": "uint256",
          "name": "fromTokenId",
          "type": "uint256"
        },
        {
          "indexed": false,
          "internalType": "uint256",
          "name": "toTokenId",
          "type": "uint256"
        },
        {
          "indexed": true,
          "internalType": "address",
          "name": "from",
          "type": "address"
        },
        {
          "indexed": true,
          "internalType": "address",
          "name": "to",
          "type": "address"
        }
      ],
      "name": "ConsecutiveTransfer",
      "type": "event"
    },
    {
      "anonymous": false,
      "inputs": [
        {
          "indexed": true,
          "internalType": "address",
          "name": "previousOwner",
          "type": "address"
        },
        {
          "indexed": true,
          "internalType": "address",
          "name": "newOwner",
          "type": "address"
        }
      ],
      "name": "OwnershipTransferred",
      "type": "event"
    },
    {
      "anonymous": false,
      "inputs": [
        {
          "indexed": false,
          "internalType": "address",
          "name": "account",
          "type": "address"
        }
      ],
      "name": "Paused",
      "type": "event"
    },
    {
      "anonymous": false,
      "inputs": [
        {
          "indexed": true,
          "internalType": "address",
          "name": "from",
          "type": "address"
        },
        {
          "indexed": true,
          "internalType": "address",
          "name": "to",
          "type": "address"
        },
        {
          "indexed": true,
          "internalType": "uint256",
          "name": "tokenId",
          "type": "uint256"
        }
      ],
      "name": "Transfer",
      "type": "event"
    },
    {
      "anonymous": false,
      "inputs": [
        {
          "indexed": false,
          "internalType": "address",
          "name": "account",
          "type": "address"
        }
      ],
      "name": "Unpaused",
      "type": "event"
    },
    {
      "inputs": [
        {
          "internalType": "address",
          "name": "to",
          "type": "address"
        },
        {
          "internalType": "uint256",
          "name": "tokenId",
          "type": "uint256"
        }
      ],
      "name": "approve",
      "outputs": [],
      "stateMutability": "nonpayable",
      "type": "function"
    },
    {
      "inputs": [
        {
          "internalType": "address",
          "name": "owner",
          "type": "address"
        }
      ],
      "name": "balanceOf",
      "outputs": [
        {
          "internalType": "uint256",
          "name": "",
          "type": "uint256"
        }
      ],
      "stateMutability": "view",
      "type": "function"
    },
    {
      "inputs": [
        {
          "internalType": "uint256",
          "name": "tokenId",
          "type": "uint256"
        }
      ],
      "name": "getApproved",
      "outputs": [
        {
          "internalType": "address",
          "name": "",
          "type": "address"
        }
      ],
      "stateMutability": "view",
      "type": "function"
    },
    {
      "inputs": [
        {
          "internalType": "address",
          "name": "owner",
          "type": "address"
        },
        {
          "internalType": "address",
          "name": "operator",
          "type": "address"
        }
      ],
      "name": "isApprovedForAll",
      "outputs": [
        {
          "internalType": "bool",
          "name": "",
          "type": "bool"
        }
      ],
      "stateMutability": "view",
      "type": "function"
    },
    {
      "inputs": [],
      "name": "maxSupply",
      "outputs": [
        {
          "internalType": "uint256",
          "name": "",
          "type": "uint256"
        }
      ],
      "stateMutability": "view",
      "type": "function"
    },
    {
      "inputs": [
        {
          "internalType": "uint256",
          "name": "_quantity",
          "type": "uint256"
        }
      ],
      "name": "mint",
      "outputs": [],
      "stateMutability": "payable",
      "type": "function"
    },
    {
      "inputs": [],
      "name": "mintPrice",
      "outputs": [
        {
          "internalType": "uint256",
          "name": "",
          "type": "uint256"
        }
      ],
      "stateMutability": "view",
      "type": "function"
    },
    {
      "inputs": [],
      "name": "name",
      "outputs": [
        {
          "internalType": "string",
          "name": "",
          "type": "string"
        }
      ],
      "stateMutability": "view",
      "type": "function"
    },
    {
      "inputs": [],
      "name": "owner",
      "outputs": [
        {
          "internalType": "address",
          "name": "",
          "type": "address"
        }
      ],
      "stateMutability": "view",
      "type": "function"
    },
    {
      "inputs": [
        {
          "internalType": "uint256",
          "name": "tokenId",
          "type": "uint256"
        }
      ],
      "name": "ownerOf",
      "outputs": [
        {
          "internalType": "address",
          "name": "",
          "type": "address"
        }
      ],
      "stateMutability": "view",
      "type": "function"
    },
    {
      "inputs": [],
      "name": "paused",
      "outputs": [
        {
          "internalType": "bool",
          "name": "",
          "type": "bool"
        }
      ],
      "stateMutability": "view",
      "type": "function"
    },
    {
      "inputs": [],
      "name": "renounceOwnership",
      "outputs": [],
      "stateMutability": "nonpayable",
      "type": "function"
    },
    {
      "inputs": [
        {
          "internalType": "address",
          "name": "from",
          "type": "address"
        },
        {
          "internalType": "address",
          "name": "to",
          "type": "address"
        },
        {
          "internalType": "uint256",
          "name": "tokenId",
          "type": "uint256"
        }
      ],
      "name": "safeTransferFrom",
      "outputs": [],
      "stateMutability": "nonpayable",
      "type": "function"
    },
    {
      "inputs": [
        {
          "internalType": "address",
          "name": "from",
          "type": "address"
        },
        {
          "internalType": "address",
          "name": "to",
          "type": "address"
        },
        {
          "internalType": "uint256",
          "name": "tokenId",
          "type": "uint256"
        },
        {
          "internalType": "bytes",
          "name": "_data",
          "type": "bytes"
        }
      ],
      "name": "safeTransferFrom",
      "outputs": [],
      "stateMutability": "nonpayable",
      "type": "function"
    },
    {
      "inputs": [
        {
          "internalType": "address",
          "name": "operator",
          "type": "address"
        },
        {
          "internalType": "bool",
          "name": "approved",
          "type": "bool"
        }
      ],
      "name": "setApprovalForAll",
      "outputs": [],
      "stateMutability": "nonpayable",
      "type": "function"
    },
    {
      "inputs": [
        {
          "internalType": "string",
          "name": "_baseURI",
          "type": "string"
        }
      ],
      "name": "setBaseURI",
      "outputs": [],
      "stateMutability": "nonpayable",
      "type": "function"
    },
    {
      "inputs": [
        {
          "internalType": "bytes4",
          "name": "interfaceId",
          "type": "bytes4"
        }
      ],
      "name": "supportsInterface",
      "outputs": [
        {
          "internalType": "bool",
          "name": "",
          "type": "bool"
        }
      ],
      "stateMutability": "view",
      "type": "function"
    },
    {
      "inputs": [],
      "name": "symbol",
      "outputs": [
        {
          "internalType": "string",
          "name": "",
          "type": "string"
        }
      ],
      "stateMutability": "view",
      "type": "function"
    },
    {
      "inputs": [
        {
          "internalType": "uint256",
          "name": "_tokenId",
          "type": "uint256"
        }
      ],
      "name": "tokenURI",
      "outputs": [
        {
          "internalType": "string",
          "name": "",
          "type": "string"
        }
      ],
      "stateMutability": "view",
      "type": "function"
    },
    {
      "inputs": [],
      "name": "totalSupply",
      "outputs": [
        {
          "internalType": "uint256",
          "name": "",
          "type": "uint256"
        }
      ],
      "stateMutability": "view",
      "type": "function"
    },
    {
      "inputs": [
        {
          "internalType": "address",
          "name": "from",
          "type": "address"
        },
        {
          "internalType": "address",
          "name": "to",
          "type": "address"
        },
        {
          "internalType": "uint256",
          "name": "tokenId",
          "type": "uint256"
        }
      ],
      "name": "transferFrom",
      "outputs": [],
      "stateMutability": "nonpayable",
      "type": "function"
    },
    {
      "inputs": [
        {
          "internalType": "address",
          "name": "newOwner",
          "type": "address"
        }
      ],
      "name": "transferOwnership",
      "outputs": [],
      "stateMutability": "nonpayable",
      "type": "function"
    },
    {
      "inputs": [
        {
          "internalType": "uint256",
          "name": "_newPrice",
          "type": "uint256"
        }
      ],
      "name": "updatePrice",
      "outputs": [],
      "stateMutability": "nonpayable",
      "type": "function"
    },
    {
      "inputs": [],
      "name": "withdraw",
      "outputs": [],
      "stateMutability": "nonpayable",
      "type": "function"
    }
  ],
  "bytecode": "0x60a0604052611e77608090815250670115137de60860006009553480156200002657600080fd5b506040516200319c3803806200319c83398181016040528101906200004c9190620007ef565b6040518060400160405280601481526020017f5468652056696e6e696520416e64204672656e730000000000000000000000008152506040518060400160405280600481526020017f54564146000000000000000000000000000000000000000000000000000000008152508160029080519060200190620000d09291906200053d565b508060039080519060200190620000e99291906200053d565b50620000fa6200020360201b60201c565b600081905550505062000122620001166200020860201b60201c565b6200021060201b60201c565b6000600860146101000a81548160ff02191690831515021790555082600c9080519060200190620001559291906200053d565b50620001786200016a6200020860201b60201c565b6064620002d660201b60201c565b81600b60006101000a81548173ffffffffffffffffffffffffffffffffffffffff021916908373ffffffffffffffffffffffffffffffffffffffff16021790555080600a60006101000a81548173ffffffffffffffffffffffffffffffffffffffff021916908373ffffffffffffffffffffffffffffffffffffffff160217905550505050620008ce565b600090565b600033905090565b6000600860009054906101000a900473ffffffffffffffffffffffffffffffffffffffff16905081600860006101000a81548173ffffffffffffffffffffffffffffffffffffffff021916908373ffffffffffffffffffffffffffffffffffffffff1602179055508173ffffffffffffffffffffffffffffffffffffffff168173ffffffffffffffffffffffffffffffffffffffff167f8be0079c531659141344cd1fd0a4f28419497f9722a3daafe3b4186f6b6457e060405160405180910390a35050565b6000805490506000820362000317576040517fb562e8dd00000000000000000000000000000000000000000000000000000000815260040160405180910390fd5b6200032c6000848385620004bd60201b60201c565b600160406001901b178202600560008573ffffffffffffffffffffffffffffffffffffffff1673ffffffffffffffffffffffffffffffffffffffff16815260200190815260200160002060008282540192505081905550620003bb836200039d6000866000620004c360201b60201c565b620003ae85620004f360201b60201c565b176200050360201b60201c565b6004600083815260200190815260200160002081905550600080838301905073ffffffffffffffffffffffffffffffffffffffff85169150828260007fddf252ad1be2c89b69c2b068fc378daa952ba7f163c4a11628f55a4df523b3ef600080a4600183015b8181146200045e57808360007fddf252ad1be2c89b69c2b068fc378daa952ba7f163c4a11628f55a4df523b3ef600080a460018101905062000421565b50600082036200049a576040517f2e07630000000000000000000000000000000000000000000000000000000000815260040160405180910390fd5b806000819055505050620004b860008483856200052e60201b60201c565b505050565b50505050565b60008060e883901c905060e8620004e28686846200053460201b60201c565b62ffffff16901b9150509392505050565b60006001821460e11b9050919050565b600073ffffffffffffffffffffffffffffffffffffffff83169250814260a01b178317905092915050565b50505050565b60009392505050565b8280546200054b9062000899565b90600052602060002090601f0160209004810192826200056f5760008555620005bb565b82601f106200058a57805160ff1916838001178555620005bb565b82800160010185558215620005bb579182015b82811115620005ba5782518255916020019190600101906200059d565b5b509050620005ca9190620005ce565b5090565b5b80821115620005e9576000816000905550600101620005cf565b5090565b6000604051905090565b600080fd5b600080fd5b600080fd5b600080fd5b6000601f19601f8301169050919050565b7f4e487b7100000000000000000000000000000000000000000000000000000000600052604160045260246000fd5b62000656826200060b565b810181811067ffffffffffffffff821117156200067857620006776200061c565b5b80604052505050565b60006200068d620005ed565b90506200069b82826200064b565b919050565b600067ffffffffffffffff821115620006be57620006bd6200061c565b5b620006c9826200060b565b9050602081019050919050565b60005b83811015620006f6578082015181840152602081019050620006d9565b8381111562000706576000848401525b50505050565b6000620007236200071d84620006a0565b62000681565b90508281526020810184848401111562000742576200074162000606565b5b6200074f848285620006d6565b509392505050565b600082601f8301126200076f576200076e62000601565b5b8151620007818482602086016200070c565b91505092915050565b600073ffffffffffffffffffffffffffffffffffffffff82169050919050565b6000620007b7826200078a565b9050919050565b620007c981620007aa565b8114620007d557600080fd5b50565b600081519050620007e981620007be565b92915050565b6000806000606084860312156200080b576200080a620005f7565b5b600084015167ffffffffffffffff8111156200082c576200082b620005fc565b5b6200083a8682870162000757565b93505060206200084d86828701620007d8565b92505060406200086086828701620007d8565b9150509250925092565b7f4e487b7100000000000000000000000000000000000000000000000000000000600052602260045260246000fd5b60006002820490506001821680620008b257607f821691505b602082108103620008c857620008c76200086a565b5b50919050565b6080516128ab620008f160003960008181610f5b015261123a01526128ab6000f3fe60806040526004361061014b5760003560e01c806370a08231116100b6578063a22cb4651161006f578063a22cb4651461045d578063b88d4fde14610486578063c87b56dd146104af578063d5abeb01146104ec578063e985e9c514610517578063f2fde38b146105545761014b565b806370a082311461036e578063715018a6146103ab5780638d6cc56d146103c25780638da5cb5b146103eb57806395d89b4114610416578063a0712d68146104415761014b565b80633ccfd60b116101085780633ccfd60b1461027257806342842e0e1461028957806355f804b3146102b25780635c975abb146102db5780636352211e146103065780636817c76c146103435761014b565b806301ffc9a71461015057806306fdde031461018d578063081812fc146101b8578063095ea7b3146101f557806318160ddd1461021e57806323b872dd14610249575b600080fd5b34801561015c57600080fd5b5061017760048036038101906101729190611cb5565b61057d565b6040516101849190611cfd565b60405180910390f35b34801561019957600080fd5b506101a261060f565b6040516101af9190611db1565b60405180910390f35b3480156101c457600080fd5b506101df60048036038101906101da9190611e09565b6106a1565b6040516101ec9190611e77565b60405180910390f35b34801561020157600080fd5b5061021c60048036038101906102179190611ebe565b610720565b005b34801561022a57600080fd5b50610233610864565b6040516102409190611f0d565b60405180910390f35b34801561025557600080fd5b50610270600480360381019061026b9190611f28565b61087b565b005b34801561027e57600080fd5b50610287610b9d565b005b34801561029557600080fd5b506102b060048036038101906102ab9190611f28565b610d0b565b005b3480156102be57600080fd5b506102d960048036038101906102d491906120b0565b610d2b565b005b3480156102e757600080fd5b506102f0610d4d565b6040516102fd9190611cfd565b60405180910390f35b34801561031257600080fd5b5061032d60048036038101906103289190611e09565b610d64565b60405161033a9190611e77565b60405180910390f35b34801561034f57600080fd5b50610358610d76565b6040516103659190611f0d565b60405180910390f35b34801561037a57600080fd5b50610395600480360381019061039091906120f9565b610d7c565b6040516103a29190611f0d565b60405180910390f35b3480156103b757600080fd5b506103c0610e34565b005b3480156103ce57600080fd5b506103e960048036038101906103e49190611e09565b610e48565b005b3480156103f757600080fd5b50610400610e5a565b60405161040d9190611e77565b60405180910390f35b34801561042257600080fd5b5061042b610e84565b6040516104389190611db1565b60405180910390f35b61045b60048036038101906104569190611e09565b610f16565b005b34801561046957600080fd5b50610484600480360381019061047f9190612152565b611014565b005b34801561049257600080fd5b506104ad60048036038101906104a89190612233565b61118b565b005b3480156104bb57600080fd5b506104d660048036038101906104d19190611e09565b6111fe565b6040516104e39190611db1565b60405180910390f35b3480156104f857600080fd5b50610501611238565b60405161050e9190611f0d565b60405180910390f35b34801561052357600080fd5b5061053e600480360381019061053991906122b6565b61125c565b60405161054b9190611cfd565b60405180910390f35b34801561056057600080fd5b5061057b600480360381019061057691906120f9565b6112f0565b005b60006301ffc9a760e01b827bffffffffffffffffffffffffffffffffffffffffffffffffffffffff191614806105d857506380ac58cd60e01b827bffffffffffffffffffffffffffffffffffffffffffffffffffffffff1916145b806106085750635b5e139f60e01b827bffffffffffffffffffffffffffffffffffffffffffffffffffffffff1916145b9050919050565b60606002805461061e90612325565b80601f016020809104026020016040519081016040528092919081815260200182805461064a90612325565b80156106975780601f1061066c57610100808354040283529160200191610697565b820191906000526020600020905b81548152906001019060200180831161067a57829003601f168201915b5050505050905090565b60006106ac82611373565b6106e2576040517fcf4700e400000000000000000000000000000000000000000000000000000000815260040160405180910390fd5b6006600083815260200190815260200160002060000160009054906101000a900473ffffffffffffffffffffffffffffffffffffffff169050919050565b600061072b82610d64565b90508073ffffffffffffffffffffffffffffffffffffffff1661074c6113d2565b73ffffffffffffffffffffffffffffffffffffffff16146107af57610778816107736113d2565b61125c565b6107ae576040517fcfb3b94200000000000000000000000000000000000000000000000000000000815260040160405180910390fd5b5b826006600084815260200190815260200160002060000160006101000a81548173ffffffffffffffffffffffffffffffffffffffff021916908373ffffffffffffffffffffffffffffffffffffffff160217905550818373ffffffffffffffffffffffffffffffffffffffff168273ffffffffffffffffffffffffffffffffffffffff167f8c5be1e5ebec7d5bd14f71427d1e84f3dd0314c0f7b2291e5b200ac8c7c3b92560405160405180910390a4505050565b600061086e6113da565b6001546000540303905090565b6000610886826113df565b90508373ffffffffffffffffffffffffffffffffffffffff168173ffffffffffffffffffffffffffffffffffffffff16146108ed576040517fa114810000000000000000000000000000000000000000000000000000000000815260040160405180910390fd5b6000806108f9846114ab565b9150915061090f818761090a6113d2565b6114d2565b61095b576109248661091f6113d2565b61125c565b61095a576040517f59c896be00000000000000000000000000000000000000000000000000000000815260040160405180910390fd5b5b600073ffffffffffffffffffffffffffffffffffffffff168573ffffffffffffffffffffffffffffffffffffffff16036109c1576040517fea553b3400000000000000000000000000000000000000000000000000000000815260040160405180910390fd5b6109ce8686866001611516565b80156109d957600082555b600560008773ffffffffffffffffffffffffffffffffffffffff1673ffffffffffffffffffffffffffffffffffffffff168152602001908152602001600020600081546001900391905081905550600560008673ffffffffffffffffffffffffffffffffffffffff1673ffffffffffffffffffffffffffffffffffffffff1681526020019081526020016000206000815460010191905081905550610aa785610a8388888761151c565b7c020000000000000000000000000000000000000000000000000000000017611544565b600460008681526020019081526020016000208190555060007c0200000000000000000000000000000000000000000000000000000000841603610b2d5760006001850190506000600460008381526020019081526020016000205403610b2b576000548114610b2a578360046000838152602001908152602001600020819055505b5b505b838573ffffffffffffffffffffffffffffffffffffffff168773ffffffffffffffffffffffffffffffffffffffff167fddf252ad1be2c89b69c2b068fc378daa952ba7f163c4a11628f55a4df523b3ef60405160405180910390a4610b95868686600161156f565b505050505050565b610ba5611575565b60004711610bdf576040517f2313b4b600000000000000000000000000000000000000000000000000000000815260040160405180910390fd5b6000670de0b6b3a764000067058d15e17628000047610bfe9190612385565b610c08919061240e565b90506000670de0b6b3a7640000670853a0d2313c000047610c299190612385565b610c33919061240e565b9050600a60009054906101000a900473ffffffffffffffffffffffffffffffffffffffff1673ffffffffffffffffffffffffffffffffffffffff166108fc839081150290604051600060405180830381858888f19350505050158015610c9d573d6000803e3d6000fd5b50600b60009054906101000a900473ffffffffffffffffffffffffffffffffffffffff1673ffffffffffffffffffffffffffffffffffffffff166108fc829081150290604051600060405180830381858888f19350505050158015610d06573d6000803e3d6000fd5b505050565b610d268383836040518060200160405280600081525061118b565b505050565b610d33611575565b80600c9080519060200190610d49929190611ba6565b5050565b6000600860149054906101000a900460ff16905090565b6000610d6f826113df565b9050919050565b60095481565b60008073ffffffffffffffffffffffffffffffffffffffff168273ffffffffffffffffffffffffffffffffffffffff1603610de3576040517f8f4eb60400000000000000000000000000000000000000000000000000000000815260040160405180910390fd5b67ffffffffffffffff600560008473ffffffffffffffffffffffffffffffffffffffff1673ffffffffffffffffffffffffffffffffffffffff16815260200190815260200160002054169050919050565b610e3c611575565b610e4660006115f3565b565b610e50611575565b8060098190555050565b6000600860009054906101000a900473ffffffffffffffffffffffffffffffffffffffff16905090565b606060038054610e9390612325565b80601f0160208091040260200160405190810160405280929190818152602001828054610ebf90612325565b8015610f0c5780601f10610ee157610100808354040283529160200191610f0c565b820191906000526020600020905b815481529060010190602001808311610eef57829003601f168201915b5050505050905090565b610f1e6116b9565b6001811015610f59576040517f524f409b00000000000000000000000000000000000000000000000000000000815260040160405180910390fd5b7f000000000000000000000000000000000000000000000000000000000000000081610f83610864565b610f8d919061243f565b10610fc4576040517f846fb9e200000000000000000000000000000000000000000000000000000000815260040160405180910390fd5b600954341015611000576040517f69640e7200000000000000000000000000000000000000000000000000000000815260040160405180910390fd5b61101161100b611703565b8261170b565b50565b61101c6113d2565b73ffffffffffffffffffffffffffffffffffffffff168273ffffffffffffffffffffffffffffffffffffffff1603611080576040517fb06307db00000000000000000000000000000000000000000000000000000000815260040160405180910390fd5b806007600061108d6113d2565b73ffffffffffffffffffffffffffffffffffffffff1673ffffffffffffffffffffffffffffffffffffffff16815260200190815260200160002060008473ffffffffffffffffffffffffffffffffffffffff1673ffffffffffffffffffffffffffffffffffffffff16815260200190815260200160002060006101000a81548160ff0219169083151502179055508173ffffffffffffffffffffffffffffffffffffffff1661113a6113d2565b73ffffffffffffffffffffffffffffffffffffffff167f17307eab39ab6107e8899845ad3d59bd9653f200f220920489ca2b5937696c318360405161117f9190611cfd565b60405180910390a35050565b61119684848461087b565b60008373ffffffffffffffffffffffffffffffffffffffff163b146111f8576111c1848484846118c6565b6111f7576040517fd1a57ed600000000000000000000000000000000000000000000000000000000815260040160405180910390fd5b5b50505050565b6060611208611a16565b61121183611a2d565b60405160200161122292919061251d565b6040516020818303038152906040529050919050565b7f000000000000000000000000000000000000000000000000000000000000000081565b6000600760008473ffffffffffffffffffffffffffffffffffffffff1673ffffffffffffffffffffffffffffffffffffffff16815260200190815260200160002060008373ffffffffffffffffffffffffffffffffffffffff1673ffffffffffffffffffffffffffffffffffffffff16815260200190815260200160002060009054906101000a900460ff16905092915050565b6112f8611575565b600073ffffffffffffffffffffffffffffffffffffffff168173ffffffffffffffffffffffffffffffffffffffff1603611367576040517f08c379a000000000000000000000000000000000000000000000000000000000815260040161135e906125be565b60405180910390fd5b611370816115f3565b50565b60008161137e6113da565b1115801561138d575060005482105b80156113cb575060007c0100000000000000000000000000000000000000000000000000000000600460008581526020019081526020016000205416145b9050919050565b600033905090565b600090565b600080829050806113ee6113da565b11611474576000548110156114735760006004600083815260200190815260200160002054905060007c0100000000000000000000000000000000000000000000000000000000821603611471575b6000810361146757600460008360019003935083815260200190815260200160002054905061143d565b80925050506114a6565b505b5b6040517fdf2d9b4200000000000000000000000000000000000000000000000000000000815260040160405180910390fd5b919050565b60008060006006600085815260200190815260200160002090508092508254915050915091565b600073ffffffffffffffffffffffffffffffffffffffff8316925073ffffffffffffffffffffffffffffffffffffffff821691508382148383141790509392505050565b50505050565b60008060e883901c905060e8611533868684611b8d565b62ffffff16901b9150509392505050565b600073ffffffffffffffffffffffffffffffffffffffff83169250814260a01b178317905092915050565b50505050565b61157d611703565b73ffffffffffffffffffffffffffffffffffffffff1661159b610e5a565b73ffffffffffffffffffffffffffffffffffffffff16146115f1576040517f08c379a00000000000000000000000000000000000000000000000000000000081526004016115e89061262a565b60405180910390fd5b565b6000600860009054906101000a900473ffffffffffffffffffffffffffffffffffffffff16905081600860006101000a81548173ffffffffffffffffffffffffffffffffffffffff021916908373ffffffffffffffffffffffffffffffffffffffff1602179055508173ffffffffffffffffffffffffffffffffffffffff168173ffffffffffffffffffffffffffffffffffffffff167f8be0079c531659141344cd1fd0a4f28419497f9722a3daafe3b4186f6b6457e060405160405180910390a35050565b6116c1610d4d565b15611701576040517f08c379a00000000000000000000000000000000000000000000000000000000081526004016116f890612696565b60405180910390fd5b565b600033905090565b6000805490506000820361174b576040517fb562e8dd00000000000000000000000000000000000000000000000000000000815260040160405180910390fd5b6117586000848385611516565b600160406001901b178202600560008573ffffffffffffffffffffffffffffffffffffffff1673ffffffffffffffffffffffffffffffffffffffff168152602001908152602001600020600082825401925050819055506117cf836117c0600086600061151c565b6117c985611b96565b17611544565b6004600083815260200190815260200160002081905550600080838301905073ffffffffffffffffffffffffffffffffffffffff85169150828260007fddf252ad1be2c89b69c2b068fc378daa952ba7f163c4a11628f55a4df523b3ef600080a4600183015b81811461187057808360007fddf252ad1be2c89b69c2b068fc378daa952ba7f163c4a11628f55a4df523b3ef600080a4600181019050611835565b50600082036118ab576040517f2e07630000000000000000000000000000000000000000000000000000000000815260040160405180910390fd5b8060008190555050506118c1600084838561156f565b505050565b60008373ffffffffffffffffffffffffffffffffffffffff1663150b7a026118ec6113d2565b8786866040518563ffffffff1660e01b815260040161190e949392919061270b565b6020604051808303816000875af192505050801561194a57506040513d601f19601f82011682018060405250810190611947919061276c565b60015b6119c3573d806000811461197a576040519150601f19603f3d011682016040523d82523d6000602084013e61197f565b606091505b5060008151036119bb576040517fd1a57ed600000000000000000000000000000000000000000000000000000000815260040160405180910390fd5b805181602001fd5b63150b7a0260e01b7bffffffffffffffffffffffffffffffffffffffffffffffffffffffff1916817bffffffffffffffffffffffffffffffffffffffffffffffffffffffff191614915050949350505050565b606060405180602001604052806000815250905090565b606060008203611a74576040518060400160405280600181526020017f30000000000000000000000000000000000000000000000000000000000000008152509050611b88565b600082905060005b60008214611aa6578080611a8f90612799565b915050600a82611a9f919061240e565b9150611a7c565b60008167ffffffffffffffff811115611ac257611ac1611f85565b5b6040519080825280601f01601f191660200182016040528015611af45781602001600182028036833780820191505090505b5090505b60008514611b8157600182611b0d91906127e1565b9150600a85611b1c9190612815565b6030611b28919061243f565b60f81b818381518110611b3e57611b3d612846565b5b60200101907effffffffffffffffffffffffffffffffffffffffffffffffffffffffffffff1916908160001a905350600a85611b7a919061240e565b9450611af8565b8093505050505b919050565b60009392505050565b60006001821460e11b9050919050565b828054611bb290612325565b90600052602060002090601f016020900481019282611bd45760008555611c1b565b82601f10611bed57805160ff1916838001178555611c1b565b82800160010185558215611c1b579182015b82811115611c1a578251825591602001919060010190611bff565b5b509050611c289190611c2c565b5090565b5b80821115611c45576000816000905550600101611c2d565b5090565b6000604051905090565b600080fd5b600080fd5b60007fffffffff0000000000000000000000000000000000000000000000000000000082169050919050565b611c9281611c5d565b8114611c9d57600080fd5b50565b600081359050611caf81611c89565b92915050565b600060208284031215611ccb57611cca611c53565b5b6000611cd984828501611ca0565b91505092915050565b60008115159050919050565b611cf781611ce2565b82525050565b6000602082019050611d126000830184611cee565b92915050565b600081519050919050565b600082825260208201905092915050565b60005b83811015611d52578082015181840152602081019050611d37565b83811115611d61576000848401525b50505050565b6000601f19601f8301169050919050565b6000611d8382611d18565b611d8d8185611d23565b9350611d9d818560208601611d34565b611da681611d67565b840191505092915050565b60006020820190508181036000830152611dcb8184611d78565b905092915050565b6000819050919050565b611de681611dd3565b8114611df157600080fd5b50565b600081359050611e0381611ddd565b92915050565b600060208284031215611e1f57611e1e611c53565b5b6000611e2d84828501611df4565b91505092915050565b600073ffffffffffffffffffffffffffffffffffffffff82169050919050565b6000611e6182611e36565b9050919050565b611e7181611e56565b82525050565b6000602082019050611e8c6000830184611e68565b92915050565b611e9b81611e56565b8114611ea657600080fd5b50565b600081359050611eb881611e92565b92915050565b60008060408385031215611ed557611ed4611c53565b5b6000611ee385828601611ea9565b9250506020611ef485828601611df4565b9150509250929050565b611f0781611dd3565b82525050565b6000602082019050611f226000830184611efe565b92915050565b600080600060608486031215611f4157611f40611c53565b5b6000611f4f86828701611ea9565b9350506020611f6086828701611ea9565b9250506040611f7186828701611df4565b9150509250925092565b600080fd5b600080fd5b7f4e487b7100000000000000000000000000000000000000000000000000000000600052604160045260246000fd5b611fbd82611d67565b810181811067ffffffffffffffff82111715611fdc57611fdb611f85565b5b80604052505050565b6000611fef611c49565b9050611ffb8282611fb4565b919050565b600067ffffffffffffffff82111561201b5761201a611f85565b5b61202482611d67565b9050602081019050919050565b82818337600083830152505050565b600061205361204e84612000565b611fe5565b90508281526020810184848401111561206f5761206e611f80565b5b61207a848285612031565b509392505050565b600082601f83011261209757612096611f7b565b5b81356120a7848260208601612040565b91505092915050565b6000602082840312156120c6576120c5611c53565b5b600082013567ffffffffffffffff8111156120e4576120e3611c58565b5b6120f084828501612082565b91505092915050565b60006020828403121561210f5761210e611c53565b5b600061211d84828501611ea9565b91505092915050565b61212f81611ce2565b811461213a57600080fd5b50565b60008135905061214c81612126565b92915050565b6000806040838503121561216957612168611c53565b5b600061217785828601611ea9565b92505060206121888582860161213d565b9150509250929050565b600067ffffffffffffffff8211156121ad576121ac611f85565b5b6121b682611d67565b9050602081019050919050565b60006121d66121d184612192565b611fe5565b9050828152602081018484840111156121f2576121f1611f80565b5b6121fd848285612031565b509392505050565b600082601f83011261221a57612219611f7b565b5b813561222a8482602086016121c3565b91505092915050565b6000806000806080858703121561224d5761224c611c53565b5b600061225b87828801611ea9565b945050602061226c87828801611ea9565b935050604061227d87828801611df4565b925050606085013567ffffffffffffffff81111561229e5761229d611c58565b5b6122aa87828801612205565b91505092959194509250565b600080604083850312156122cd576122cc611c53565b5b60006122db85828601611ea9565b92505060206122ec85828601611ea9565b9150509250929050565b7f4e487b7100000000000000000000000000000000000000000000000000000000600052602260045260246000fd5b6000600282049050600182168061233d57607f821691505b6020821081036123505761234f6122f6565b5b50919050565b7f4e487b7100000000000000000000000000000000000000000000000000000000600052601160045260246000fd5b600061239082611dd3565b915061239b83611dd3565b9250817fffffffffffffffffffffffffffffffffffffffffffffffffffffffffffffffff04831182151516156123d4576123d3612356565b5b828202905092915050565b7f4e487b7100000000000000000000000000000000000000000000000000000000600052601260045260246000fd5b600061241982611dd3565b915061242483611dd3565b925082612434576124336123df565b5b828204905092915050565b600061244a82611dd3565b915061245583611dd3565b9250827fffffffffffffffffffffffffffffffffffffffffffffffffffffffffffffffff0382111561248a57612489612356565b5b828201905092915050565b600081905092915050565b60006124ab82611d18565b6124b58185612495565b93506124c5818560208601611d34565b80840191505092915050565b7f2e6a736f6e000000000000000000000000000000000000000000000000000000600082015250565b6000612507600583612495565b9150612512826124d1565b600582019050919050565b600061252982856124a0565b915061253582846124a0565b9150612540826124fa565b91508190509392505050565b7f4f776e61626c653a206e6577206f776e657220697320746865207a65726f206160008201527f6464726573730000000000000000000000000000000000000000000000000000602082015250565b60006125a8602683611d23565b91506125b38261254c565b604082019050919050565b600060208201905081810360008301526125d78161259b565b9050919050565b7f4f776e61626c653a2063616c6c6572206973206e6f7420746865206f776e6572600082015250565b6000612614602083611d23565b915061261f826125de565b602082019050919050565b6000602082019050818103600083015261264381612607565b9050919050565b7f5061757361626c653a2070617573656400000000000000000000000000000000600082015250565b6000612680601083611d23565b915061268b8261264a565b602082019050919050565b600060208201905081810360008301526126af81612673565b9050919050565b600081519050919050565b600082825260208201905092915050565b60006126dd826126b6565b6126e781856126c1565b93506126f7818560208601611d34565b61270081611d67565b840191505092915050565b60006080820190506127206000830187611e68565b61272d6020830186611e68565b61273a6040830185611efe565b818103606083015261274c81846126d2565b905095945050505050565b60008151905061276681611c89565b92915050565b60006020828403121561278257612781611c53565b5b600061279084828501612757565b91505092915050565b60006127a482611dd3565b91507fffffffffffffffffffffffffffffffffffffffffffffffffffffffffffffffff82036127d6576127d5612356565b5b600182019050919050565b60006127ec82611dd3565b91506127f783611dd3565b92508282101561280a57612809612356565b5b828203905092915050565b600061282082611dd3565b915061282b83611dd3565b92508261283b5761283a6123df565b5b828206905092915050565b7f4e487b7100000000000000000000000000000000000000000000000000000000600052603260045260246000fdfea2646970667358221220899886d523656ae53e084782a7fe811fd094b90b882af5be10027534c550ef5664736f6c634300080d0033",
  "linkReferences": {},
  "deployedLinkReferences": {}
}